{"abi":[{"type":"receive","stateMutability":"payable"},{"type":"function","name":"DEFAULT_ADMIN_ROLE","inputs":[],"outputs":[{"name":"","type":"bytes32","internalType":"bytes32"}],"stateMutability":"view"},{"type":"function","name":"claimAllToken","inputs":[],"outputs":[],"stateMutability":"nonpayable"},{"type":"function","name":"claimToken","inputs":[{"name":"tokenAddress","type":"address","internalType":"address"}],"outputs":[],"stateMutability":"nonpayable"},{"type":"function","name":"depositERC20","inputs":[{"name":"tokenAddress","type":"address","internalType":"contract IERC20"},{"name":"amount","type":"uint256","internalType":"uint256"}],"outputs":[],"stateMutability":"nonpayable"},{"type":"function","name":"depositETH","inputs":[],"outputs":[{"name":"","type":"bool","internalType":"bool"}],"stateMutability":"payable"},{"type":"function","name":"ethAddress","inputs":[],"outputs":[{"name":"","type":"address","internalType":"address"}],"stateMutability":"view"},{"type":"function","name":"getRoleAdmin","inputs":[{"name":"role","type":"bytes32","internalType":"bytes32"}],"outputs":[{"name":"","type":"bytes32","internalType":"bytes32"}],"stateMutability":"view"},{"type":"function","name":"getTokenWhiteList","inputs":[],"outputs":[{"name":"","type":"address[]","internalType":"address[]"}],"stateMutability":"view"},{"type":"function","name":"grantReward","inputs":[{"name":"tokenAddress","type":"address","internalType":"address"},{"name":"granter","type":"address","internalType":"address"},{"name":"amount","type":"uint256","internalType":"uint256"}],"outputs":[],"stateMutability":"nonpayable"},{"type":"function","name":"grantRole","inputs":[{"name":"role","type":"bytes32","internalType":"bytes32"},{"name":"account","type":"address","internalType":"address"}],"outputs":[],"stateMutability":"nonpayable"},{"type":"function","name":"granterRewardAmount","inputs":[{"name":"","type":"address","internalType":"address"},{"name":"","type":"address","internalType":"address"}],"outputs":[{"name":"","type":"uint256","internalType":"uint256"}],"stateMutability":"view"},{"type":"function","name":"hasRole","inputs":[{"name":"role","type":"bytes32","internalType":"bytes32"},{"name":"account","type":"address","internalType":"address"}],"outputs":[{"name":"","type":"bool","internalType":"bool"}],"stateMutability":"view"},{"type":"function","name":"initialize","inputs":[{"name":"initOwner","type":"address","internalType":"address"},{"name":"_treasureManager","type":"address","internalType":"address"},{"name":"_withdrawManager","type":"address","internalType":"address"}],"outputs":[],"stateMutability":"nonpayable"},{"type":"function","name":"owner","inputs":[],"outputs":[{"name":"","type":"address","internalType":"address"}],"stateMutability":"view"},{"type":"function","name":"queryReward","inputs":[{"name":"tokenAddress","type":"address","internalType":"address"}],"outputs":[{"name":"","type":"uint256","internalType":"uint256"}],"stateMutability":"view"},{"type":"function","name":"renounceOwnership","inputs":[],"outputs":[],"stateMutability":"nonpayable"},{"type":"function","name":"renounceRole","inputs":[{"name":"role","type":"bytes32","internalType":"bytes32"},{"name":"callerConfirmation","type":"address","internalType":"address"}],"outputs":[],"stateMutability":"nonpayable"},{"type":"function","name":"revokeRole","inputs":[{"name":"role","type":"bytes32","internalType":"bytes32"},{"name":"account","type":"address","internalType":"address"}],"outputs":[],"stateMutability":"nonpayable"},{"type":"function","name":"setTokenWhiteList","inputs":[{"name":"tokenAddress","type":"address","internalType":"address"}],"outputs":[],"stateMutability":"nonpayable"},{"type":"function","name":"setWithdrawManager","inputs":[{"name":"_withdrawManager","type":"address","internalType":"address"}],"outputs":[],"stateMutability":"nonpayable"},{"type":"function","name":"supportsInterface","inputs":[{"name":"interfaceId","type":"bytes4","internalType":"bytes4"}],"outputs":[{"name":"","type":"bool","internalType":"bool"}],"stateMutability":"view"},{"type":"function","name":"tokenBalances","inputs":[{"name":"","type":"address","internalType":"address"}],"outputs":[{"name":"","type":"uint256","internalType":"uint256"}],"stateMutability":"view"},{"type":"function","name":"tokenWhiteList","inputs":[{"name":"","type":"uint256","internalType":"uint256"}],"outputs":[{"name":"","type":"address","internalType":"address"}],"stateMutability":"view"},{"type":"function","name":"transferOwnership","inputs":[{"name":"newOwner","type":"address","internalType":"address"}],"outputs":[],"stateMutability":"nonpayable"},{"type":"function","name":"treasureManager","inputs":[],"outputs":[{"name":"","type":"address","internalType":"address"}],"stateMutability":"view"},{"type":"function","name":"withdrawERC20","inputs":[{"name":"tokenAddress","type":"address","internalType":"contract IERC20"},{"name":"withdrawAddress","type":"address","internalType":"address"},{"name":"amount","type":"uint256","internalType":"uint256"}],"outputs":[{"name":"","type":"bool","internalType":"bool"}],"stateMutability":"nonpayable"},{"type":"function","name":"withdrawETH","inputs":[{"name":"withdrawAddress","type":"address","internalType":"address payable"},{"name":"amount","type":"uint256","internalType":"uint256"}],"outputs":[{"name":"","type":"bool","internalType":"bool"}],"stateMutability":"payable"},{"type":"function","name":"withdrawManager","inputs":[],"outputs":[{"name":"","type":"address","internalType":"address"}],"stateMutability":"view"},{"type":"event","name":"DepositToken","inputs":[{"name":"tokenAddress","type":"address","indexed":true,"internalType":"address"},{"name":"sender","type":"address","indexed":true,"internalType":"address"},{"name":"amount","type":"uint256","indexed":false,"internalType":"uint256"}],"anonymous":false},{"type":"event","name":"GrantRewardTokenAmount","inputs":[{"name":"tokenAddress","type":"address","indexed":true,"internalType":"address"},{"name":"granter","type":"address","indexed":false,"internalType":"address"},{"name":"amount","type":"uint256","indexed":false,"internalType":"uint256"}],"anonymous":false},{"type":"event","name":"Initialized","inputs":[{"name":"version","type":"uint64","indexed":false,"internalType":"uint64"}],"anonymous":false},{"type":"event","name":"OwnershipTransferred","inputs":[{"name":"previousOwner","type":"address","indexed":true,"internalType":"address"},{"name":"newOwner","type":"address","indexed":true,"internalType":"address"}],"anonymous":false},{"type":"event","name":"RoleAdminChanged","inputs":[{"name":"role","type":"bytes32","indexed":true,"internalType":"bytes32"},{"name":"previousAdminRole","type":"bytes32","indexed":true,"internalType":"bytes32"},{"name":"newAdminRole","type":"bytes32","indexed":true,"internalType":"bytes32"}],"anonymous":false},{"type":"event","name":"RoleGranted","inputs":[{"name":"role","type":"bytes32","indexed":true,"internalType":"bytes32"},{"name":"account","type":"address","indexed":true,"internalType":"address"},{"name":"sender","type":"address","indexed":true,"internalType":"address"}],"anonymous":false},{"type":"event","name":"RoleRevoked","inputs":[{"name":"role","type":"bytes32","indexed":true,"internalType":"bytes32"},{"name":"account","type":"address","indexed":true,"internalType":"address"},{"name":"sender","type":"address","indexed":true,"internalType":"address"}],"anonymous":false},{"type":"event","name":"WithdrawManagerUpdate","inputs":[{"name":"withdrawManger","type":"address","indexed":true,"internalType":"address"}],"anonymous":false},{"type":"event","name":"WithdrawToken","inputs":[{"name":"tokenAddress","type":"address","indexed":true,"internalType":"address"},{"name":"sender","type":"address","indexed":true,"internalType":"address"},{"name":"withdrawAddress","type":"address","indexed":false,"internalType":"address"},{"name":"amount","type":"uint256","indexed":false,"internalType":"uint256"}],"anonymous":false},{"type":"error","name":"AccessControlBadConfirmation","inputs":[]},{"type":"error","name":"AccessControlUnauthorizedAccount","inputs":[{"name":"account","type":"address","internalType":"address"},{"name":"neededRole","type":"bytes32","internalType":"bytes32"}]},{"type":"error","name":"InvalidInitialization","inputs":[]},{"type":"error","name":"IsZeroAddress","inputs":[]},{"type":"error","name":"NotInitializing","inputs":[]},{"type":"error","name":"OwnableInvalidOwner","inputs":[{"name":"owner","type":"address","internalType":"address"}]},{"type":"error","name":"OwnableUnauthorizedAccount","inputs":[{"name":"account","type":"address","internalType":"address"}]},{"type":"error","name":"ReentrancyGuardReentrantCall","inputs":[]}],"bytecode":{"object":"0x6080604052348015600e575f80fd5b506130408061001c5f395ff3fe6080604052600436106101ba575f3560e01c8063519acebf116100eb578063a2672ad711610089578063d547741f11610063578063d547741f14610681578063ec3e9da5146106a9578063f2fde38b146106d3578063f6326fb3146106fb5761022f565b8063a2672ad7146105f5578063c0c53b8b1461061d578063c37220ea146106455761022f565b80638da5cb5b116100c55780638da5cb5b1461053d57806391d148541461056757806397feb926146105a3578063a217fddf146105cb5761022f565b8063519acebf146104af578063523fba7f146104eb578063715018a6146105275761022f565b8063248a9ca31161015857806336568abe1161013257806336568abe146103f157806341398b151461041957806344004cc1146104435780634782f7791461047f5761022f565b8063248a9ca3146103655780632f2ff15d146103a157806332f289cf146103c95761022f565b8063084cfb2711610194578063084cfb27146102c15780630ec08b00146102d757806317e3e2e81461031357806323ecdbee1461033b5761022f565b806301ffc9a71461023357806302fef78b1461026f57806303186d22146102975761022f565b3661022f573073ffffffffffffffffffffffffffffffffffffffff1663f6326fb36040518163ffffffff1660e01b81526004016020604051808303815f875af1158015610209573d5f803e3d5ffd5b505050506040513d601f19601f8201168201806040525081019061022d919061248e565b005b5f80fd5b34801561023e575f80fd5b506102596004803603810190610254919061250e565b610719565b6040516102669190612548565b60405180910390f35b34801561027a575f80fd5b50610295600480360381019061029091906125ee565b610792565b005b3480156102a2575f80fd5b506102ab610998565b6040516102b8919061264d565b60405180910390f35b3480156102cc575f80fd5b506102d56109bb565b005b3480156102e2575f80fd5b506102fd60048036038101906102f89190612666565b610d60565b60405161030a919061264d565b60405180910390f35b34801561031e575f80fd5b5061033960048036038101906103349190612691565b610d9b565b005b348015610346575f80fd5b5061034f610e21565b60405161035c9190612773565b60405180910390f35b348015610370575f80fd5b5061038b600480360381019061038691906127c6565b610eac565b6040516103989190612800565b60405180910390f35b3480156103ac575f80fd5b506103c760048036038101906103c29190612819565b610ed6565b005b3480156103d4575f80fd5b506103ef60048036038101906103ea9190612691565b610ef8565b005b3480156103fc575f80fd5b5061041760048036038101906104129190612819565b6112fe565b005b348015610424575f80fd5b5061042d611379565b60405161043a919061264d565b60405180910390f35b34801561044e575f80fd5b5061046960048036038101906104649190612892565b611391565b6040516104769190612548565b60405180910390f35b6104996004803603810190610494919061291d565b6115e2565b6040516104a69190612548565b60405180910390f35b3480156104ba575f80fd5b506104d560048036038101906104d0919061295b565b61186a565b6040516104e291906129a8565b60405180910390f35b3480156104f6575f80fd5b50610511600480360381019061050c9190612691565b61188a565b60405161051e91906129a8565b60405180910390f35b348015610532575f80fd5b5061053b61189f565b005b348015610548575f80fd5b506105516118b2565b60405161055e919061264d565b60405180910390f35b348015610572575f80fd5b5061058d60048036038101906105889190612819565b6118e7565b60405161059a9190612548565b60405180910390f35b3480156105ae575f80fd5b506105c960048036038101906105c491906129c1565b611958565b005b3480156105d6575f80fd5b506105df611a92565b6040516105ec9190612800565b60405180910390f35b348015610600575f80fd5b5061061b60048036038101906106169190612691565b611a98565b005b348015610628575f80fd5b50610643600480360381019061063e91906129ff565b611afb565b005b348015610650575f80fd5b5061066b60048036038101906106669190612691565b611cfd565b60405161067891906129a8565b60405180910390f35b34801561068c575f80fd5b506106a760048036038101906106a29190612819565b611d7e565b005b3480156106b4575f80fd5b506106bd611da0565b6040516106ca919061264d565b60405180910390f35b3480156106de575f80fd5b506106f960048036038101906106f49190612691565b611dc5565b005b610703611e49565b6040516107109190612548565b60405180910390f35b5f7f7965db0b000000000000000000000000000000000000000000000000000000007bffffffffffffffffffffffffffffffffffffffffffffffffffffffff1916827bffffffffffffffffffffffffffffffffffffffffffffffffffffffff1916148061078b575061078a82611f31565b5b9050919050565b5f8054906101000a900473ffffffffffffffffffffffffffffffffffffffff1673ffffffffffffffffffffffffffffffffffffffff163373ffffffffffffffffffffffffffffffffffffffff161461081f576040517f08c379a000000000000000000000000000000000000000000000000000000000815260040161081690612aa9565b60405180910390fd5b5f73ffffffffffffffffffffffffffffffffffffffff168373ffffffffffffffffffffffffffffffffffffffff161415801561088757505f73ffffffffffffffffffffffffffffffffffffffff168273ffffffffffffffffffffffffffffffffffffffff1614155b6108c6576040517f08c379a00000000000000000000000000000000000000000000000000000000081526004016108bd90612b11565b60405180910390fd5b8060045f8473ffffffffffffffffffffffffffffffffffffffff1673ffffffffffffffffffffffffffffffffffffffff1681526020019081526020015f205f8573ffffffffffffffffffffffffffffffffffffffff1673ffffffffffffffffffffffffffffffffffffffff1681526020019081526020015f20819055508273ffffffffffffffffffffffffffffffffffffffff167f10621458f3ad2a9cfcb87c216122570629e44079d6af4d717035eb55d2c60424838360405161098b929190612b2f565b60405180910390a2505050565b5f8054906101000a900473ffffffffffffffffffffffffffffffffffffffff1681565b6109c3611f9a565b5f5b600280549050811015610d55575f600282815481106109e7576109e6612b56565b5b905f5260205f20015f9054906101000a900473ffffffffffffffffffffffffffffffffffffffff1690505f73ffffffffffffffffffffffffffffffffffffffff168173ffffffffffffffffffffffffffffffffffffffff1603610a7f576040517f08c379a0000000000000000000000000000000000000000000000000000000008152600401610a7690612b11565b60405180910390fd5b5f60045f3373ffffffffffffffffffffffffffffffffffffffff1673ffffffffffffffffffffffffffffffffffffffff1681526020019081526020015f205f8373ffffffffffffffffffffffffffffffffffffffff1673ffffffffffffffffffffffffffffffffffffffff1681526020019081526020015f205490505f811115610d465773eeeeeeeeeeeeeeeceeeeeeeeeeceeeeeeceeeece73ffffffffffffffffffffffffffffffffffffffff168273ffffffffffffffffffffffffffffffffffffffff1603610bf8575f3373ffffffffffffffffffffffffffffffffffffffff1682604051610b6f90612bb0565b5f6040518083038185875af1925050503d805f8114610ba9576040519150601f19603f3d011682016040523d82523d5f602084013e610bae565b606091505b5050905080610bf2576040517f08c379a0000000000000000000000000000000000000000000000000000000008152600401610be990612c0e565b60405180910390fd5b50610c75565b8173ffffffffffffffffffffffffffffffffffffffff1663a9059cbb33836040518363ffffffff1660e01b8152600401610c33929190612b2f565b6020604051808303815f875af1158015610c4f573d5f803e3d5ffd5b505050506040513d601f19601f82011682018060405250810190610c73919061248e565b505b5f60045f3373ffffffffffffffffffffffffffffffffffffffff1673ffffffffffffffffffffffffffffffffffffffff1681526020019081526020015f205f8473ffffffffffffffffffffffffffffffffffffffff1673ffffffffffffffffffffffffffffffffffffffff1681526020019081526020015f20819055508060035f8473ffffffffffffffffffffffffffffffffffffffff1673ffffffffffffffffffffffffffffffffffffffff1681526020019081526020015f205f828254610d3e9190612c59565b925050819055505b505080806001019150506109c5565b50610d5e611fee565b565b60028181548110610d6f575f80fd5b905f5260205f20015f915054906101000a900473ffffffffffffffffffffffffffffffffffffffff1681565b8060015f6101000a81548173ffffffffffffffffffffffffffffffffffffffff021916908373ffffffffffffffffffffffffffffffffffffffff1602179055508073ffffffffffffffffffffffffffffffffffffffff167f799e16a314d482c87bc47fd219011aaf33f4f9c7e302be5d7a0af286a52998b960405160405180910390a250565b60606002805480602002602001604051908101604052809291908181526020018280548015610ea257602002820191905f5260205f20905b815f9054906101000a900473ffffffffffffffffffffffffffffffffffffffff1673ffffffffffffffffffffffffffffffffffffffff1681526020019060010190808311610e59575b5050505050905090565b5f80610eb6612005565b9050805f015f8481526020019081526020015f2060010154915050919050565b610edf82610eac565b610ee88161202c565b610ef28383612040565b50505050565b610f00611f9a565b5f73ffffffffffffffffffffffffffffffffffffffff168173ffffffffffffffffffffffffffffffffffffffff1603610f6e576040517f08c379a0000000000000000000000000000000000000000000000000000000008152600401610f6590612b11565b60405180910390fd5b5f60045f3373ffffffffffffffffffffffffffffffffffffffff1673ffffffffffffffffffffffffffffffffffffffff1681526020019081526020015f205f8373ffffffffffffffffffffffffffffffffffffffff1673ffffffffffffffffffffffffffffffffffffffff1681526020019081526020015f205490505f811161102c576040517f08c379a000000000000000000000000000000000000000000000000000000000815260040161102390612cd6565b60405180910390fd5b5f60035f8473ffffffffffffffffffffffffffffffffffffffff1673ffffffffffffffffffffffffffffffffffffffff1681526020019081526020015f205490505f81116110af576040517f08c379a00000000000000000000000000000000000000000000000000000000081526004016110a690612d3e565b60405180910390fd5b73eeeeeeeeeeeeeeeceeeeeeeeeeceeeeeeceeeece73ffffffffffffffffffffffffffffffffffffffff168373ffffffffffffffffffffffffffffffffffffffff16036111a4575f3373ffffffffffffffffffffffffffffffffffffffff168360405161111b90612bb0565b5f6040518083038185875af1925050503d805f8114611155576040519150601f19603f3d011682016040523d82523d5f602084013e61115a565b606091505b505090508061119e576040517f08c379a000000000000000000000000000000000000000000000000000000000815260040161119590612c0e565b60405180910390fd5b50611221565b8273ffffffffffffffffffffffffffffffffffffffff1663a9059cbb33846040518363ffffffff1660e01b81526004016111df929190612b2f565b6020604051808303815f875af11580156111fb573d5f803e3d5ffd5b505050506040513d601f19601f8201168201806040525081019061121f919061248e565b505b5f60045f3373ffffffffffffffffffffffffffffffffffffffff1673ffffffffffffffffffffffffffffffffffffffff1681526020019081526020015f205f8573ffffffffffffffffffffffffffffffffffffffff1673ffffffffffffffffffffffffffffffffffffffff1681526020019081526020015f20819055508160035f8573ffffffffffffffffffffffffffffffffffffffff1673ffffffffffffffffffffffffffffffffffffffff1681526020019081526020015f205f8282546112ea9190612c59565b9250508190555050506112fb611fee565b50565b611306612138565b73ffffffffffffffffffffffffffffffffffffffff168173ffffffffffffffffffffffffffffffffffffffff161461136a576040517f6697b23200000000000000000000000000000000000000000000000000000000815260040160405180910390fd5b611374828261213f565b505050565b73eeeeeeeeeeeeeeeceeeeeeeeeeceeeeeeceeeece81565b5f60015f9054906101000a900473ffffffffffffffffffffffffffffffffffffffff1673ffffffffffffffffffffffffffffffffffffffff163373ffffffffffffffffffffffffffffffffffffffff1614611421576040517f08c379a000000000000000000000000000000000000000000000000000000000815260040161141890612da6565b60405180910390fd5b8160035f8673ffffffffffffffffffffffffffffffffffffffff1673ffffffffffffffffffffffffffffffffffffffff1681526020019081526020015f205410156114a1576040517f08c379a000000000000000000000000000000000000000000000000000000000815260040161149890612e0e565b60405180910390fd5b8373ffffffffffffffffffffffffffffffffffffffff1663a9059cbb84846040518363ffffffff1660e01b81526004016114dc929190612b2f565b6020604051808303815f875af11580156114f8573d5f803e3d5ffd5b505050506040513d601f19601f8201168201806040525081019061151c919061248e565b508160035f8673ffffffffffffffffffffffffffffffffffffffff1673ffffffffffffffffffffffffffffffffffffffff1681526020019081526020015f205f8282546115699190612c59565b925050819055503373ffffffffffffffffffffffffffffffffffffffff168473ffffffffffffffffffffffffffffffffffffffff167f9ca7c1e047552a8048d924a5a8d3c150eb861086a72a9100e5f19d1176c1b74685856040516115cf929190612b2f565b60405180910390a3600190509392505050565b5f60015f9054906101000a900473ffffffffffffffffffffffffffffffffffffffff1673ffffffffffffffffffffffffffffffffffffffff163373ffffffffffffffffffffffffffffffffffffffff1614611672576040517f08c379a000000000000000000000000000000000000000000000000000000000815260040161166990612da6565b60405180910390fd5b8160035f73eeeeeeeeeeeeeeeceeeeeeeeeeceeeeeeceeeece73ffffffffffffffffffffffffffffffffffffffff1673ffffffffffffffffffffffffffffffffffffffff1681526020019081526020015f20541015611706576040517f08c379a00000000000000000000000000000000000000000000000000000000081526004016116fd90612e76565b60405180910390fd5b5f8373ffffffffffffffffffffffffffffffffffffffff168360405161172b90612bb0565b5f6040518083038185875af1925050503d805f8114611765576040519150601f19603f3d011682016040523d82523d5f602084013e61176a565b606091505b505090508061177c575f915050611864565b8260035f73eeeeeeeeeeeeeeeceeeeeeeeeeceeeeeeceeeece73ffffffffffffffffffffffffffffffffffffffff1673ffffffffffffffffffffffffffffffffffffffff1681526020019081526020015f205f8282546117dc9190612c59565b925050819055503373ffffffffffffffffffffffffffffffffffffffff1673eeeeeeeeeeeeeeeceeeeeeeeeeceeeeeeceeeece73ffffffffffffffffffffffffffffffffffffffff167f9ca7c1e047552a8048d924a5a8d3c150eb861086a72a9100e5f19d1176c1b7468686604051611856929190612eef565b60405180910390a360019150505b92915050565b6004602052815f5260405f20602052805f5260405f205f91509150505481565b6003602052805f5260405f205f915090505481565b6118a7612237565b6118b05f6122be565b565b5f806118bc61238f565b9050805f015f9054906101000a900473ffffffffffffffffffffffffffffffffffffffff1691505090565b5f806118f1612005565b9050805f015f8581526020019081526020015f205f015f8473ffffffffffffffffffffffffffffffffffffffff1673ffffffffffffffffffffffffffffffffffffffff1681526020019081526020015f205f9054906101000a900460ff1691505092915050565b8173ffffffffffffffffffffffffffffffffffffffff166323b872dd3330846040518463ffffffff1660e01b815260040161199593929190612f16565b6020604051808303815f875af11580156119b1573d5f803e3d5ffd5b505050506040513d601f19601f820116820180604052508101906119d5919061248e565b508060035f8473ffffffffffffffffffffffffffffffffffffffff1673ffffffffffffffffffffffffffffffffffffffff1681526020019081526020015f205f828254611a229190612f4b565b925050819055503373ffffffffffffffffffffffffffffffffffffffff168273ffffffffffffffffffffffffffffffffffffffff167f4b3f81827ede20c81afbf1bb77b954afcdcae24d391d99042310cb1d9210dd5783604051611a8691906129a8565b60405180910390a35050565b5f801b81565b600281908060018154018082558091505060019003905f5260205f20015f9091909190916101000a81548173ffffffffffffffffffffffffffffffffffffffff021916908373ffffffffffffffffffffffffffffffffffffffff16021790555050565b5f611b046123b6565b90505f815f0160089054906101000a900460ff161590505f825f015f9054906101000a900467ffffffffffffffff1690505f808267ffffffffffffffff16148015611b4c5750825b90505f60018367ffffffffffffffff16148015611b7f57505f3073ffffffffffffffffffffffffffffffffffffffff163b145b905081158015611b8d575080155b15611bc4576040517ff92ee8a900000000000000000000000000000000000000000000000000000000815260040160405180910390fd5b6001855f015f6101000a81548167ffffffffffffffff021916908367ffffffffffffffff1602179055508315611c11576001855f0160086101000a81548160ff0219169083151502179055505b865f806101000a81548173ffffffffffffffffffffffffffffffffffffffff021916908373ffffffffffffffffffffffffffffffffffffffff1602179055508560015f6101000a81548173ffffffffffffffffffffffffffffffffffffffff021916908373ffffffffffffffffffffffffffffffffffffffff160217905550611c99886122be565b8315611cf3575f855f0160086101000a81548160ff0219169083151502179055507fc7f505b2f371ae2175ee4913f4499e1f2633a7b5936321eed1cdaeb6115181d26001604051611cea9190612fca565b60405180910390a15b5050505050505050565b5f60045f3373ffffffffffffffffffffffffffffffffffffffff1673ffffffffffffffffffffffffffffffffffffffff1681526020019081526020015f205f8373ffffffffffffffffffffffffffffffffffffffff1673ffffffffffffffffffffffffffffffffffffffff1681526020019081526020015f20549050919050565b611d8782610eac565b611d908161202c565b611d9a838361213f565b50505050565b60015f9054906101000a900473ffffffffffffffffffffffffffffffffffffffff1681565b611dcd612237565b5f73ffffffffffffffffffffffffffffffffffffffff168173ffffffffffffffffffffffffffffffffffffffff1603611e3d575f6040517f1e4fbdf7000000000000000000000000000000000000000000000000000000008152600401611e34919061264d565b60405180910390fd5b611e46816122be565b50565b5f3460035f73eeeeeeeeeeeeeeeceeeeeeeeeeceeeeeeceeeece73ffffffffffffffffffffffffffffffffffffffff1673ffffffffffffffffffffffffffffffffffffffff1681526020019081526020015f205f828254611eaa9190612f4b565b925050819055503373ffffffffffffffffffffffffffffffffffffffff1673eeeeeeeeeeeeeeeceeeeeeeeeeceeeeeeceeeece73ffffffffffffffffffffffffffffffffffffffff167f4b3f81827ede20c81afbf1bb77b954afcdcae24d391d99042310cb1d9210dd5734604051611f2291906129a8565b60405180910390a36001905090565b5f7f01ffc9a7000000000000000000000000000000000000000000000000000000007bffffffffffffffffffffffffffffffffffffffffffffffffffffffff1916827bffffffffffffffffffffffffffffffffffffffffffffffffffffffff1916149050919050565b5f611fa36123dd565b90506002815f015403611fe2576040517f3ee5aeb500000000000000000000000000000000000000000000000000000000815260040160405180910390fd5b6002815f018190555050565b5f611ff76123dd565b90506001815f018190555050565b5f7f02dd7bc7dec4dceedda775e58dd541e08a116c6c53815c0bd028192f7b626800905090565b61203d81612038612138565b612404565b50565b5f8061204a612005565b905061205684846118e7565b61212d576001815f015f8681526020019081526020015f205f015f8573ffffffffffffffffffffffffffffffffffffffff1673ffffffffffffffffffffffffffffffffffffffff1681526020019081526020015f205f6101000a81548160ff0219169083151502179055506120c9612138565b73ffffffffffffffffffffffffffffffffffffffff168373ffffffffffffffffffffffffffffffffffffffff16857f2f8788117e7eff1d82e926ec794901d17c78024a50270940304540a733656f0d60405160405180910390a46001915050612132565b5f9150505b92915050565b5f33905090565b5f80612149612005565b905061215584846118e7565b1561222c575f815f015f8681526020019081526020015f205f015f8573ffffffffffffffffffffffffffffffffffffffff1673ffffffffffffffffffffffffffffffffffffffff1681526020019081526020015f205f6101000a81548160ff0219169083151502179055506121c8612138565b73ffffffffffffffffffffffffffffffffffffffff168373ffffffffffffffffffffffffffffffffffffffff16857ff6391f5c32d9c69d2a47ea670b442974b53935d1edc7fd64eb21e047a839171b60405160405180910390a46001915050612231565b5f9150505b92915050565b61223f612138565b73ffffffffffffffffffffffffffffffffffffffff1661225d6118b2565b73ffffffffffffffffffffffffffffffffffffffff16146122bc57612280612138565b6040517f118cdaa70000000000000000000000000000000000000000000000000000000081526004016122b3919061264d565b60405180910390fd5b565b5f6122c761238f565b90505f815f015f9054906101000a900473ffffffffffffffffffffffffffffffffffffffff16905082825f015f6101000a81548173ffffffffffffffffffffffffffffffffffffffff021916908373ffffffffffffffffffffffffffffffffffffffff1602179055508273ffffffffffffffffffffffffffffffffffffffff168173ffffffffffffffffffffffffffffffffffffffff167f8be0079c531659141344cd1fd0a4f28419497f9722a3daafe3b4186f6b6457e060405160405180910390a3505050565b5f7f9016d09d72d40fdae2fd8ceac6b6234c7706214fd39c1cd1e609a0528c199300905090565b5f7ff0c57e16840df040f15088dc2f81fe391c3923bec73e23a9662efc9c229c6a00905090565b5f7f9b779b17422d0df92223018b32b4d1fa46e071723d6817e2486d003becc55f00905090565b61240e82826118e7565b6124515780826040517fe2517d3f000000000000000000000000000000000000000000000000000000008152600401612448929190612fe3565b60405180910390fd5b5050565b5f80fd5b5f8115159050919050565b61246d81612459565b8114612477575f80fd5b50565b5f8151905061248881612464565b92915050565b5f602082840312156124a3576124a2612455565b5b5f6124b08482850161247a565b91505092915050565b5f7fffffffff0000000000000000000000000000000000000000000000000000000082169050919050565b6124ed816124b9565b81146124f7575f80fd5b50565b5f81359050612508816124e4565b92915050565b5f6020828403121561252357612522612455565b5b5f612530848285016124fa565b91505092915050565b61254281612459565b82525050565b5f60208201905061255b5f830184612539565b92915050565b5f73ffffffffffffffffffffffffffffffffffffffff82169050919050565b5f61258a82612561565b9050919050565b61259a81612580565b81146125a4575f80fd5b50565b5f813590506125b581612591565b92915050565b5f819050919050565b6125cd816125bb565b81146125d7575f80fd5b50565b5f813590506125e8816125c4565b92915050565b5f805f6060848603121561260557612604612455565b5b5f612612868287016125a7565b9350506020612623868287016125a7565b9250506040612634868287016125da565b9150509250925092565b61264781612580565b82525050565b5f6020820190506126605f83018461263e565b92915050565b5f6020828403121561267b5761267a612455565b5b5f612688848285016125da565b91505092915050565b5f602082840312156126a6576126a5612455565b5b5f6126b3848285016125a7565b91505092915050565b5f81519050919050565b5f82825260208201905092915050565b5f819050602082019050919050565b6126ee81612580565b82525050565b5f6126ff83836126e5565b60208301905092915050565b5f602082019050919050565b5f612721826126bc565b61272b81856126c6565b9350612736836126d6565b805f5b8381101561276657815161274d88826126f4565b97506127588361270b565b925050600181019050612739565b5085935050505092915050565b5f6020820190508181035f83015261278b8184612717565b905092915050565b5f819050919050565b6127a581612793565b81146127af575f80fd5b50565b5f813590506127c08161279c565b92915050565b5f602082840312156127db576127da612455565b5b5f6127e8848285016127b2565b91505092915050565b6127fa81612793565b82525050565b5f6020820190506128135f8301846127f1565b92915050565b5f806040838503121561282f5761282e612455565b5b5f61283c858286016127b2565b925050602061284d858286016125a7565b9150509250929050565b5f61286182612580565b9050919050565b61287181612857565b811461287b575f80fd5b50565b5f8135905061288c81612868565b92915050565b5f805f606084860312156128a9576128a8612455565b5b5f6128b68682870161287e565b93505060206128c7868287016125a7565b92505060406128d8868287016125da565b9150509250925092565b5f6128ec82612561565b9050919050565b6128fc816128e2565b8114612906575f80fd5b50565b5f81359050612917816128f3565b92915050565b5f806040838503121561293357612932612455565b5b5f61294085828601612909565b9250506020612951858286016125da565b9150509250929050565b5f806040838503121561297157612970612455565b5b5f61297e858286016125a7565b925050602061298f858286016125a7565b9150509250929050565b6129a2816125bb565b82525050565b5f6020820190506129bb5f830184612999565b92915050565b5f80604083850312156129d7576129d6612455565b5b5f6129e48582860161287e565b92505060206129f5858286016125da565b9150509250929050565b5f805f60608486031215612a1657612a15612455565b5b5f612a23868287016125a7565b9350506020612a34868287016125a7565b9250506040612a45868287016125a7565b9150509250925092565b5f82825260208201905092915050565b7f6f6e6c792074726561737572654d616e616765722063616e2063616c6c0000005f82015250565b5f612a93601d83612a4f565b9150612a9e82612a5f565b602082019050919050565b5f6020820190508181035f830152612ac081612a87565b9050919050565b7f696e76616c6964206164647265737300000000000000000000000000000000005f82015250565b5f612afb600f83612a4f565b9150612b0682612ac7565b602082019050919050565b5f6020820190508181035f830152612b2881612aef565b9050919050565b5f604082019050612b425f83018561263e565b612b4f6020830184612999565b9392505050565b7f4e487b71000000000000000000000000000000000000000000000000000000005f52603260045260245ffd5b5f81905092915050565b50565b5f612b9b5f83612b83565b9150612ba682612b8d565b5f82019050919050565b5f612bba82612b90565b9150819050919050565b7f657468207472616e73666572206661696c6564000000000000000000000000005f82015250565b5f612bf8601383612a4f565b9150612c0382612bc4565b602082019050919050565b5f6020820190508181035f830152612c2581612bec565b9050919050565b7f4e487b71000000000000000000000000000000000000000000000000000000005f52601160045260245ffd5b5f612c63826125bb565b9150612c6e836125bb565b9250828203905081811115612c8657612c85612c2c565b5b92915050565b7f6e6f2072657761726420617661696c61626c65000000000000000000000000005f82015250565b5f612cc0601383612a4f565b9150612ccb82612c8c565b602082019050919050565b5f6020820190508181035f830152612ced81612cb4565b9050919050565b7f746f6b656e20616d6f756e74206e6f7420656e6f7567680000000000000000005f82015250565b5f612d28601783612a4f565b9150612d3382612cf4565b602082019050919050565b5f6020820190508181035f830152612d5581612d1c565b9050919050565b7f6f6e6c792077697468647261774d616e616765722063616e2063616c6c0000005f82015250565b5f612d90601d83612a4f565b9150612d9b82612d5c565b602082019050919050565b5f6020820190508181035f830152612dbd81612d84565b9050919050565b7f746f6b656e206e6f7420656e6f756768000000000000000000000000000000005f82015250565b5f612df8601083612a4f565b9150612e0382612dc4565b602082019050919050565b5f6020820190508181035f830152612e2581612dec565b9050919050565b7f657468206e6f7420656e6f7567680000000000000000000000000000000000005f82015250565b5f612e60600e83612a4f565b9150612e6b82612e2c565b602082019050919050565b5f6020820190508181035f830152612e8d81612e54565b9050919050565b5f819050919050565b5f612eb7612eb2612ead84612561565b612e94565b612561565b9050919050565b5f612ec882612e9d565b9050919050565b5f612ed982612ebe565b9050919050565b612ee981612ecf565b82525050565b5f604082019050612f025f830185612ee0565b612f0f6020830184612999565b9392505050565b5f606082019050612f295f83018661263e565b612f36602083018561263e565b612f436040830184612999565b949350505050565b5f612f55826125bb565b9150612f60836125bb565b9250828201905080821115612f7857612f77612c2c565b5b92915050565b5f819050919050565b5f67ffffffffffffffff82169050919050565b5f612fb4612faf612faa84612f7e565b612e94565b612f87565b9050919050565b612fc481612f9a565b82525050565b5f602082019050612fdd5f830184612fbb565b92915050565b5f604082019050612ff65f83018561263e565b61300360208301846127f1565b939250505056fea2646970667358221220ae11213193380bb19852756da891e8203d30cc478a7525877ef0dd5f2b267d6764736f6c634300081a0033","linkReferences":{}},"methodIdentifiers":{"DEFAULT_ADMIN_ROLE()":"a217fddf","claimAllToken()":"084cfb27","claimToken(address)":"32f289cf","depositERC20(address,uint256)":"97feb926","depositETH()":"f6326fb3","ethAddress()":"41398b15","getRoleAdmin(bytes32)":"248a9ca3","getTokenWhiteList()":"23ecdbee","grantReward(address,address,uint256)":"02fef78b","grantRole(bytes32,address)":"2f2ff15d","granterRewardAmount(address,address)":"519acebf","hasRole(bytes32,address)":"91d14854","initialize(address,address,address)":"c0c53b8b","owner()":"8da5cb5b","queryReward(address)":"c37220ea","renounceOwnership()":"715018a6","renounceRole(bytes32,address)":"36568abe","revokeRole(bytes32,address)":"d547741f","setTokenWhiteList(address)":"a2672ad7","setWithdrawManager(address)":"17e3e2e8","supportsInterface(bytes4)":"01ffc9a7","tokenBalances(address)":"523fba7f","tokenWhiteList(uint256)":"0ec08b00","transferOwnership(address)":"f2fde38b","treasureManager()":"03186d22","withdrawERC20(address,address,uint256)":"44004cc1","withdrawETH(address,uint256)":"4782f779","withdrawManager()":"ec3e9da5"},"storageLayout":{"storage":[{"astId":1732,"contract":"src/TreasureManager.sol:TreasureManager","label":"treasureManager","offset":0,"slot":"0","type":"t_address"},{"astId":1734,"contract":"src/TreasureManager.sol:TreasureManager","label":"withdrawManager","offset":0,"slot":"1","type":"t_address"},{"astId":1737,"contract":"src/TreasureManager.sol:TreasureManager","label":"tokenWhiteList","offset":0,"slot":"2","type":"t_array(t_address)dyn_storage"},{"astId":1741,"contract":"src/TreasureManager.sol:TreasureManager","label":"tokenBalances","offset":0,"slot":"3","type":"t_mapping(t_address,t_uint256)"},{"astId":1747,"contract":"src/TreasureManager.sol:TreasureManager","label":"granterRewardAmount","offset":0,"slot":"4","type":"t_mapping(t_address,t_mapping(t_address,t_uint256))"}],"types":{"t_address":{"encoding":"inplace","label":"address","numberOfBytes":"20"},"t_array(t_address)dyn_storage":{"encoding":"dynamic_array","label":"address[]","numberOfBytes":"32","base":"t_address"},"t_mapping(t_address,t_mapping(t_address,t_uint256))":{"encoding":"mapping","key":"t_address","label":"mapping(address => mapping(address => uint256))","numberOfBytes":"32","value":"t_mapping(t_address,t_uint256)"},"t_mapping(t_address,t_uint256)":{"encoding":"mapping","key":"t_address","label":"mapping(address => uint256)","numberOfBytes":"32","value":"t_uint256"},"t_uint256":{"encoding":"inplace","label":"uint256","numberOfBytes":"32"}}},"id":13}